{
  "contractName": "Crowdfunding",
  "abi": [
    {
      "anonymous": false,
      "inputs": [
        {
          "indexed": true,
          "internalType": "uint256",
          "name": "campaignId",
          "type": "uint256"
        },
        {
          "indexed": true,
          "internalType": "address",
          "name": "creator",
          "type": "address"
        },
        {
          "indexed": false,
          "internalType": "string",
          "name": "title",
          "type": "string"
        },
        {
          "indexed": false,
          "internalType": "uint256",
          "name": "targetAmount",
          "type": "uint256"
        },
        {
          "indexed": false,
          "internalType": "uint256",
          "name": "deadline",
          "type": "uint256"
        }
      ],
      "name": "CampaignCreated",
      "type": "event"
    },
    {
      "anonymous": false,
      "inputs": [
        {
          "indexed": true,
          "internalType": "uint256",
          "name": "campaignId",
          "type": "uint256"
        },
        {
          "indexed": true,
          "internalType": "address",
          "name": "contributor",
          "type": "address"
        },
        {
          "indexed": false,
          "internalType": "uint256",
          "name": "amount",
          "type": "uint256"
        }
      ],
      "name": "ContributionMade",
      "type": "event"
    },
    {
      "anonymous": false,
      "inputs": [
        {
          "indexed": true,
          "internalType": "uint256",
          "name": "campaignId",
          "type": "uint256"
        },
        {
          "indexed": true,
          "internalType": "address",
          "name": "creator",
          "type": "address"
        },
        {
          "indexed": false,
          "internalType": "uint256",
          "name": "amount",
          "type": "uint256"
        }
      ],
      "name": "FundsWithdrawn",
      "type": "event"
    },
    {
      "inputs": [],
      "name": "campaignCount",
      "outputs": [
        {
          "internalType": "uint256",
          "name": "",
          "type": "uint256"
        }
      ],
      "stateMutability": "view",
      "type": "function",
      "constant": true
    },
    {
      "inputs": [
        {
          "internalType": "uint256",
          "name": "",
          "type": "uint256"
        }
      ],
      "name": "campaigns",
      "outputs": [
        {
          "internalType": "address",
          "name": "creator",
          "type": "address"
        },
        {
          "internalType": "string",
          "name": "title",
          "type": "string"
        },
        {
          "internalType": "string",
          "name": "description",
          "type": "string"
        },
        {
          "internalType": "uint256",
          "name": "targetAmount",
          "type": "uint256"
        },
        {
          "internalType": "uint256",
          "name": "deadline",
          "type": "uint256"
        },
        {
          "internalType": "uint256",
          "name": "amountRaised",
          "type": "uint256"
        },
        {
          "internalType": "bool",
          "name": "withdrawn",
          "type": "bool"
        }
      ],
      "stateMutability": "view",
      "type": "function",
      "constant": true
    },
    {
      "inputs": [
        {
          "internalType": "uint256",
          "name": "",
          "type": "uint256"
        },
        {
          "internalType": "address",
          "name": "",
          "type": "address"
        }
      ],
      "name": "contributions",
      "outputs": [
        {
          "internalType": "uint256",
          "name": "",
          "type": "uint256"
        }
      ],
      "stateMutability": "view",
      "type": "function",
      "constant": true
    },
    {
      "inputs": [
        {
          "internalType": "string",
          "name": "_title",
          "type": "string"
        },
        {
          "internalType": "string",
          "name": "_description",
          "type": "string"
        },
        {
          "internalType": "uint256",
          "name": "_targetAmount",
          "type": "uint256"
        },
        {
          "internalType": "uint256",
          "name": "_durationDays",
          "type": "uint256"
        }
      ],
      "name": "createCampaign",
      "outputs": [],
      "stateMutability": "nonpayable",
      "type": "function"
    },
    {
      "inputs": [
        {
          "internalType": "uint256",
          "name": "_campaignId",
          "type": "uint256"
        }
      ],
      "name": "contribute",
      "outputs": [],
      "stateMutability": "payable",
      "type": "function",
      "payable": true
    },
    {
      "inputs": [
        {
          "internalType": "uint256",
          "name": "_campaignId",
          "type": "uint256"
        }
      ],
      "name": "withdrawFunds",
      "outputs": [],
      "stateMutability": "nonpayable",
      "type": "function"
    },
    {
      "inputs": [
        {
          "internalType": "uint256",
          "name": "_campaignId",
          "type": "uint256"
        }
      ],
      "name": "getCampaignDetails",
      "outputs": [
        {
          "internalType": "address",
          "name": "creator",
          "type": "address"
        },
        {
          "internalType": "string",
          "name": "title",
          "type": "string"
        },
        {
          "internalType": "string",
          "name": "description",
          "type": "string"
        },
        {
          "internalType": "uint256",
          "name": "targetAmount",
          "type": "uint256"
        },
        {
          "internalType": "uint256",
          "name": "deadline",
          "type": "uint256"
        },
        {
          "internalType": "uint256",
          "name": "amountRaised",
          "type": "uint256"
        },
        {
          "internalType": "bool",
          "name": "withdrawn",
          "type": "bool"
        }
      ],
      "stateMutability": "view",
      "type": "function",
      "constant": true
    },
    {
      "inputs": [
        {
          "internalType": "uint256",
          "name": "_campaignId",
          "type": "uint256"
        },
        {
          "internalType": "address",
          "name": "_contributor",
          "type": "address"
        }
      ],
      "name": "getContributorAmount",
      "outputs": [
        {
          "internalType": "uint256",
          "name": "",
          "type": "uint256"
        }
      ],
      "stateMutability": "view",
      "type": "function",
      "constant": true
    }
  ],
  "bytecode": "0x608060405234801561001057600080fd5b50610eaf806100206000396000f3fe60806040526004361061007b5760003560e01c80637274e30d1161004e5780637274e30d1461012b578063a318f26914610140578063c1cbbca714610160578063d993de62146101735761007b565b8063141961bc14610080578063155dd5ee146100bc5780633d891f59146100de57806361c47cc91461010b575b600080fd5b34801561008c57600080fd5b506100a061009b366004610a97565b610193565b6040516100b39796959493929190610b37565b60405180910390f35b3480156100c857600080fd5b506100dc6100d7366004610a97565b6102ec565b005b3480156100ea57600080fd5b506100fe6100f9366004610aaf565b61045b565b6040516100b39190610db7565b34801561011757600080fd5b506100fe610126366004610aaf565b610478565b34801561013757600080fd5b506100fe6104c4565b34801561014c57600080fd5b506100dc61015b366004610a26565b6104ca565b6100dc61016e366004610a97565b610662565b34801561017f57600080fd5b506100a061018e366004610a97565b610766565b600060208190529081526040902080546001820180546001600160a01b0390921692916101bf90610df7565b80601f01602080910402602001604051908101604052809291908181526020018280546101eb90610df7565b80156102385780601f1061020d57610100808354040283529160200191610238565b820191906000526020600020905b81548152906001019060200180831161021b57829003601f168201915b50505050509080600201805461024d90610df7565b80601f016020809104026020016040519081016040528092919081815260200182805461027990610df7565b80156102c65780601f1061029b576101008083540402835291602001916102c6565b820191906000526020600020905b8154815290600101906020018083116102a957829003601f168201915b505050506003830154600484015460058501546006909501549394919390925060ff1687565b60008181526020819052604090205481906001600160a01b0316331461032d5760405162461bcd60e51b815260040161032490610c1e565b60405180910390fd5b6000828152602081905260409020600681015460ff16156103605760405162461bcd60e51b815260040161032490610c60565b8060030154816005015410156103885760405162461bcd60e51b815260040161032490610cce565b60068101805460ff191660011790556005810154604051600090339083906103af90610b34565b60006040518083038185875af1925050503d80600081146103ec576040519150601f19603f3d011682016040523d82523d6000602084013e6103f1565b606091505b50509050806104125760405162461bcd60e51b815260040161032490610d48565b336001600160a01b0316857ff440aec6b52895984d061d622e6edeba6210f7c3e059be920663140c084560d78460405161044c9190610db7565b60405180910390a35050505050565b600160209081526000928352604080842090915290825290205481565b6000600254831061049b5760405162461bcd60e51b815260040161032490610bbb565b5060009182526001602090815260408084206001600160a01b0393909316845291905290205490565b60025481565b600082116104ea5760405162461bcd60e51b815260040161032490610d73565b6000811161050a5760405162461bcd60e51b815260040161032490610c97565b6002546040805160e08101825233815260208101879052908101859052606081018490526080810161053f8462015180610dd8565b6105499042610dc0565b8152600060208083018290526040928301829052848252818152919020825181546001600160a01b0319166001600160a01b03909116178155828201518051919261059c9260018501929091019061090c565b50604082015180516105b891600284019160209091019061090c565b5060608201516003820155608082015160048083019190915560a0830151600583015560c0909201516006909101805460ff191691151591909117905560008281526020819052604090819020909101549051339183917fdc26653af5b99b2da33e2ad69ee6600d9aeccc82b034501db4338309615ca2389161063e918a918991610b96565b60405180910390a36002805490600061065683610e32565b91905055505050505050565b60025481106106835760405162461bcd60e51b815260040161032490610bbb565b600034116106a35760405162461bcd60e51b815260040161032490610d05565b60008181526020819052604090206004015442106106d35760405162461bcd60e51b815260040161032490610bf2565b600081815260208190526040812060050180543492906106f4908490610dc0565b9091555050600081815260016020908152604080832033845290915281208054349290610722908490610dc0565b9091555050604051339082907f0a4a91237423e0a1766a761c7cb029311d8b95d6b1b81db1b949a70c98b4e08e9061075b903490610db7565b60405180910390a350565b600060608060008060008060025488106107925760405162461bcd60e51b815260040161032490610bbb565b6000888152602081905260409020805460038201546004830154600584015460068501546001860180546001600160a01b03909616959094600288019490939092909160ff9091169086906107e690610df7565b80601f016020809104026020016040519081016040528092919081815260200182805461081290610df7565b801561085f5780601f106108345761010080835404028352916020019161085f565b820191906000526020600020905b81548152906001019060200180831161084257829003601f168201915b5050505050955084805461087290610df7565b80601f016020809104026020016040519081016040528092919081815260200182805461089e90610df7565b80156108eb5780601f106108c0576101008083540402835291602001916108eb565b820191906000526020600020905b8154815290600101906020018083116108ce57829003601f168201915b50505050509450975097509750975097509750975050919395979092949650565b82805461091890610df7565b90600052602060002090601f01602090048101928261093a5760008555610980565b82601f1061095357805160ff1916838001178555610980565b82800160010185558215610980579182015b82811115610980578251825591602001919060010190610965565b5061098c929150610990565b5090565b5b8082111561098c5760008155600101610991565b600082601f8301126109b5578081fd5b813567ffffffffffffffff808211156109d0576109d0610e63565b604051601f8301601f1916810160200182811182821017156109f4576109f4610e63565b604052828152848301602001861015610a0b578384fd5b82602086016020830137918201602001929092529392505050565b60008060008060808587031215610a3b578384fd5b843567ffffffffffffffff80821115610a52578586fd5b610a5e888389016109a5565b95506020870135915080821115610a73578485fd5b50610a80878288016109a5565b949794965050505060408301359260600135919050565b600060208284031215610aa8578081fd5b5035919050565b60008060408385031215610ac1578182fd5b8235915060208301356001600160a01b0381168114610ade578182fd5b809150509250929050565b60008151808452815b81811015610b0e57602081850181015186830182015201610af2565b81811115610b1f5782602083870101525b50601f01601f19169290920160200192915050565b90565b6001600160a01b038816815260e060208201819052600090610b5b90830189610ae9565b8281036040840152610b6d8189610ae9565b9150508560608301528460808301528360a083015282151560c083015298975050505050505050565b600060608252610ba96060830186610ae9565b60208301949094525060400152919050565b60208082526017908201527f43616d706169676e20646f6573206e6f74206578697374000000000000000000604082015260600190565b60208082526012908201527110d85b5c185a59db881a185cc8195b99195960721b604082015260600190565b60208082526022908201527f4f6e6c792063616d706169676e2063726561746f722063616e20776974686472604082015261617760f01b606082015260800190565b60208082526017908201527f46756e647320616c72656164792077697468647261776e000000000000000000604082015260600190565b6020808252601f908201527f4475726174696f6e206d7573742062652067726561746572207468616e203000604082015260600190565b60208082526019908201527f54617267657420616d6f756e74206e6f74207265616368656400000000000000604082015260600190565b60208082526023908201527f436f6e747269627574696f6e206d75737420626520677265617465722074686160408201526206e20360ec1b606082015260800190565b60208082526011908201527015da5d1a191c985dd85b0819985a5b1959607a1b604082015260600190565b60208082526024908201527f54617267657420616d6f756e74206d75737420626520677265617465722074686040820152630616e20360e41b606082015260800190565b90815260200190565b60008219821115610dd357610dd3610e4d565b500190565b6000816000190483118215151615610df257610df2610e4d565b500290565b600281046001821680610e0b57607f821691505b60208210811415610e2c57634e487b7160e01b600052602260045260246000fd5b50919050565b6000600019821415610e4657610e46610e4d565b5060010190565b634e487b7160e01b600052601160045260246000fd5b634e487b7160e01b600052604160045260246000fdfea2646970667358221220adbb2287996d37ee1f9fdade5d48e76b1427fd495d0ea09480fc6fb94dcf4ea064736f6c63430008000033",
  "immutableReferences": {},
  "source": "// SPDX-License-Identifier: MIT\npragma solidity ^0.8.0;\n\ncontract Crowdfunding {\n    struct Campaign {\n        address creator;\n        string title;\n        string description;\n        uint256 targetAmount;\n        uint256 deadline;\n        uint256 amountRaised;\n        bool withdrawn;\n    }\n\n    mapping(uint256 => Campaign) public campaigns;\n    mapping(uint256 => mapping(address => uint256)) public contributions;\n    uint256 public campaignCount;\n\n    event CampaignCreated(\n        uint256 indexed campaignId,\n        address indexed creator,\n        string title,\n        uint256 targetAmount,\n        uint256 deadline\n    );\n\n    event ContributionMade(\n        uint256 indexed campaignId,\n        address indexed contributor,\n        uint256 amount\n    );\n\n    event FundsWithdrawn(\n        uint256 indexed campaignId,\n        address indexed creator,\n        uint256 amount\n    );\n\n    modifier onlyCreator(uint256 _campaignId) {\n        require(\n            msg.sender == campaigns[_campaignId].creator,\n            \"Only campaign creator can withdraw\"\n        );\n        _;\n    }\n\n    function createCampaign(\n        string memory _title,\n        string memory _description,\n        uint256 _targetAmount,\n        uint256 _durationDays\n    ) public {\n        require(_targetAmount > 0, \"Target amount must be greater than 0\");\n        require(_durationDays > 0, \"Duration must be greater than 0\");\n\n        uint256 campaignId = campaignCount;\n        campaigns[campaignId] = Campaign({\n            creator: msg.sender,\n            title: _title,\n            description: _description,\n            targetAmount: _targetAmount,\n            deadline: block.timestamp + (_durationDays * 1 days),\n            amountRaised: 0,\n            withdrawn: false\n        });\n\n        emit CampaignCreated(\n            campaignId,\n            msg.sender,\n            _title,\n            _targetAmount,\n            campaigns[campaignId].deadline\n        );\n\n        campaignCount++;\n    }\n\n    function contribute(uint256 _campaignId) public payable {\n        require(_campaignId < campaignCount, \"Campaign does not exist\");\n        require(msg.value > 0, \"Contribution must be greater than 0\");\n        require(\n            block.timestamp < campaigns[_campaignId].deadline,\n            \"Campaign has ended\"\n        );\n\n        campaigns[_campaignId].amountRaised += msg.value;\n        contributions[_campaignId][msg.sender] += msg.value;\n\n        emit ContributionMade(_campaignId, msg.sender, msg.value);\n    }\n\n    function withdrawFunds(uint256 _campaignId) public onlyCreator(_campaignId) {\n        Campaign storage campaign = campaigns[_campaignId];\n        require(!campaign.withdrawn, \"Funds already withdrawn\");\n        require(\n            campaign.amountRaised >= campaign.targetAmount,\n            \"Target amount not reached\"\n        );\n\n        campaign.withdrawn = true;\n        uint256 amount = campaign.amountRaised;\n\n        (bool success, ) = payable(msg.sender).call{value: amount}(\"\");\n        require(success, \"Withdrawal failed\");\n\n        emit FundsWithdrawn(_campaignId, msg.sender, amount);\n    }\n\n    function getCampaignDetails(uint256 _campaignId)\n        public\n        view\n        returns (\n            address creator,\n            string memory title,\n            string memory description,\n            uint256 targetAmount,\n            uint256 deadline,\n            uint256 amountRaised,\n            bool withdrawn\n        )\n    {\n        require(_campaignId < campaignCount, \"Campaign does not exist\");\n        Campaign storage campaign = campaigns[_campaignId];\n        return (\n            campaign.creator,\n            campaign.title,\n            campaign.description,\n            campaign.targetAmount,\n            campaign.deadline,\n            campaign.amountRaised,\n            campaign.withdrawn\n        );\n    }\n\n    function getContributorAmount(uint256 _campaignId, address _contributor)\n        public\n        view\n        returns (uint256)\n    {\n        require(_campaignId < campaignCount, \"Campaign does not exist\");\n        return contributions[_campaignId][_contributor];\n    }\n}\n",
  "sourcePath": "/home/zzl/xy3/202510/blocktest1115/contracts/Crowdfunding.sol",
  "compiler": {
    "name": "solc",
    "version": "0.8.0+commit.c7dfd78e.Emscripten.clang"
  },
  "schemaVersion": "3.4.16",
  "updatedAt": "2025-11-18T02:07:50.851Z",
  "networkType": "ethereum",
  "devdoc": {
    "kind": "dev",
    "methods": {},
    "version": 1
  },
  "userdoc": {
    "kind": "user",
    "methods": {},
    "version": 1
  }
}